{
  "contractName": "MyToken",
  "abi": [
    {
      "inputs": [],
      "stateMutability": "nonpayable",
      "type": "constructor"
    },
    {
      "anonymous": false,
      "inputs": [
        {
          "indexed": true,
          "internalType": "address",
          "name": "owner",
          "type": "address"
        },
        {
          "indexed": true,
          "internalType": "address",
          "name": "approved",
          "type": "address"
        },
        {
          "indexed": true,
          "internalType": "uint256",
          "name": "tokenId",
          "type": "uint256"
        }
      ],
      "name": "Approval",
      "type": "event"
    },
    {
      "anonymous": false,
      "inputs": [
        {
          "indexed": true,
          "internalType": "address",
          "name": "owner",
          "type": "address"
        },
        {
          "indexed": true,
          "internalType": "address",
          "name": "operator",
          "type": "address"
        },
        {
          "indexed": false,
          "internalType": "bool",
          "name": "approved",
          "type": "bool"
        }
      ],
      "name": "ApprovalForAll",
      "type": "event"
    },
    {
      "anonymous": false,
      "inputs": [
        {
          "indexed": true,
          "internalType": "address",
          "name": "previousOwner",
          "type": "address"
        },
        {
          "indexed": true,
          "internalType": "address",
          "name": "newOwner",
          "type": "address"
        }
      ],
      "name": "OwnershipTransferred",
      "type": "event"
    },
    {
      "anonymous": false,
      "inputs": [
        {
          "indexed": false,
          "internalType": "address",
          "name": "account",
          "type": "address"
        }
      ],
      "name": "Paused",
      "type": "event"
    },
    {
      "anonymous": false,
      "inputs": [
        {
          "indexed": true,
          "internalType": "address",
          "name": "from",
          "type": "address"
        },
        {
          "indexed": true,
          "internalType": "address",
          "name": "to",
          "type": "address"
        },
        {
          "indexed": true,
          "internalType": "uint256",
          "name": "tokenId",
          "type": "uint256"
        }
      ],
      "name": "Transfer",
      "type": "event"
    },
    {
      "anonymous": false,
      "inputs": [
        {
          "indexed": false,
          "internalType": "address",
          "name": "account",
          "type": "address"
        }
      ],
      "name": "Unpaused",
      "type": "event"
    },
    {
      "inputs": [
        {
          "internalType": "address",
          "name": "to",
          "type": "address"
        },
        {
          "internalType": "uint256",
          "name": "tokenId",
          "type": "uint256"
        }
      ],
      "name": "approve",
      "outputs": [],
      "stateMutability": "nonpayable",
      "type": "function"
    },
    {
      "inputs": [
        {
          "internalType": "address",
          "name": "owner",
          "type": "address"
        }
      ],
      "name": "balanceOf",
      "outputs": [
        {
          "internalType": "uint256",
          "name": "",
          "type": "uint256"
        }
      ],
      "stateMutability": "view",
      "type": "function"
    },
    {
      "inputs": [
        {
          "internalType": "uint256",
          "name": "tokenId",
          "type": "uint256"
        }
      ],
      "name": "burn",
      "outputs": [],
      "stateMutability": "nonpayable",
      "type": "function"
    },
    {
      "inputs": [
        {
          "internalType": "uint256",
          "name": "tokenId",
          "type": "uint256"
        }
      ],
      "name": "getApproved",
      "outputs": [
        {
          "internalType": "address",
          "name": "",
          "type": "address"
        }
      ],
      "stateMutability": "view",
      "type": "function"
    },
    {
      "inputs": [
        {
          "internalType": "address",
          "name": "owner",
          "type": "address"
        },
        {
          "internalType": "address",
          "name": "operator",
          "type": "address"
        }
      ],
      "name": "isApprovedForAll",
      "outputs": [
        {
          "internalType": "bool",
          "name": "",
          "type": "bool"
        }
      ],
      "stateMutability": "view",
      "type": "function"
    },
    {
      "inputs": [],
      "name": "name",
      "outputs": [
        {
          "internalType": "string",
          "name": "",
          "type": "string"
        }
      ],
      "stateMutability": "view",
      "type": "function"
    },
    {
      "inputs": [],
      "name": "owner",
      "outputs": [
        {
          "internalType": "address",
          "name": "",
          "type": "address"
        }
      ],
      "stateMutability": "view",
      "type": "function"
    },
    {
      "inputs": [
        {
          "internalType": "uint256",
          "name": "tokenId",
          "type": "uint256"
        }
      ],
      "name": "ownerOf",
      "outputs": [
        {
          "internalType": "address",
          "name": "",
          "type": "address"
        }
      ],
      "stateMutability": "view",
      "type": "function"
    },
    {
      "inputs": [],
      "name": "paused",
      "outputs": [
        {
          "internalType": "bool",
          "name": "",
          "type": "bool"
        }
      ],
      "stateMutability": "view",
      "type": "function"
    },
    {
      "inputs": [],
      "name": "renounceOwnership",
      "outputs": [],
      "stateMutability": "nonpayable",
      "type": "function"
    },
    {
      "inputs": [
        {
          "internalType": "address",
          "name": "from",
          "type": "address"
        },
        {
          "internalType": "address",
          "name": "to",
          "type": "address"
        },
        {
          "internalType": "uint256",
          "name": "tokenId",
          "type": "uint256"
        }
      ],
      "name": "safeTransferFrom",
      "outputs": [],
      "stateMutability": "nonpayable",
      "type": "function"
    },
    {
      "inputs": [
        {
          "internalType": "address",
          "name": "from",
          "type": "address"
        },
        {
          "internalType": "address",
          "name": "to",
          "type": "address"
        },
        {
          "internalType": "uint256",
          "name": "tokenId",
          "type": "uint256"
        },
        {
          "internalType": "bytes",
          "name": "_data",
          "type": "bytes"
        }
      ],
      "name": "safeTransferFrom",
      "outputs": [],
      "stateMutability": "nonpayable",
      "type": "function"
    },
    {
      "inputs": [
        {
          "internalType": "address",
          "name": "operator",
          "type": "address"
        },
        {
          "internalType": "bool",
          "name": "approved",
          "type": "bool"
        }
      ],
      "name": "setApprovalForAll",
      "outputs": [],
      "stateMutability": "nonpayable",
      "type": "function"
    },
    {
      "inputs": [],
      "name": "symbol",
      "outputs": [
        {
          "internalType": "string",
          "name": "",
          "type": "string"
        }
      ],
      "stateMutability": "view",
      "type": "function"
    },
    {
      "inputs": [
        {
          "internalType": "uint256",
          "name": "index",
          "type": "uint256"
        }
      ],
      "name": "tokenByIndex",
      "outputs": [
        {
          "internalType": "uint256",
          "name": "",
          "type": "uint256"
        }
      ],
      "stateMutability": "view",
      "type": "function"
    },
    {
      "inputs": [
        {
          "internalType": "address",
          "name": "owner",
          "type": "address"
        },
        {
          "internalType": "uint256",
          "name": "index",
          "type": "uint256"
        }
      ],
      "name": "tokenOfOwnerByIndex",
      "outputs": [
        {
          "internalType": "uint256",
          "name": "",
          "type": "uint256"
        }
      ],
      "stateMutability": "view",
      "type": "function"
    },
    {
      "inputs": [],
      "name": "totalSupply",
      "outputs": [
        {
          "internalType": "uint256",
          "name": "",
          "type": "uint256"
        }
      ],
      "stateMutability": "view",
      "type": "function"
    },
    {
      "inputs": [
        {
          "internalType": "address",
          "name": "from",
          "type": "address"
        },
        {
          "internalType": "address",
          "name": "to",
          "type": "address"
        },
        {
          "internalType": "uint256",
          "name": "tokenId",
          "type": "uint256"
        }
      ],
      "name": "transferFrom",
      "outputs": [],
      "stateMutability": "nonpayable",
      "type": "function"
    },
    {
      "inputs": [
        {
          "internalType": "address",
          "name": "newOwner",
          "type": "address"
        }
      ],
      "name": "transferOwnership",
      "outputs": [],
      "stateMutability": "nonpayable",
      "type": "function"
    },
    {
      "inputs": [],
      "name": "pause",
      "outputs": [],
      "stateMutability": "nonpayable",
      "type": "function"
    },
    {
      "inputs": [],
      "name": "unpause",
      "outputs": [],
      "stateMutability": "nonpayable",
      "type": "function"
    },
    {
      "inputs": [
        {
          "internalType": "string",
          "name": "_baseUrl",
          "type": "string"
        }
      ],
      "name": "changeBaseURL",
      "outputs": [],
      "stateMutability": "nonpayable",
      "type": "function"
    },
    {
      "inputs": [
        {
          "internalType": "address",
          "name": "to",
          "type": "address"
        },
        {
          "internalType": "string",
          "name": "uri",
          "type": "string"
        }
      ],
      "name": "safeMint",
      "outputs": [],
      "stateMutability": "nonpayable",
      "type": "function"
    },
    {
      "inputs": [
        {
          "internalType": "uint256",
          "name": "tokenId",
          "type": "uint256"
        }
      ],
      "name": "tokenURI",
      "outputs": [
        {
          "internalType": "string",
          "name": "",
          "type": "string"
        }
      ],
      "stateMutability": "view",
      "type": "function"
    },
    {
      "inputs": [
        {
          "internalType": "bytes4",
          "name": "interfaceId",
          "type": "bytes4"
        }
      ],
      "name": "supportsInterface",
      "outputs": [
        {
          "internalType": "bool",
          "name": "",
          "type": "bool"
        }
      ],
      "stateMutability": "view",
      "type": "function"
    }
  ],
  "bytecode": "0x60806040523480156200001157600080fd5b506040518060400160405280600781526020017f4d79546f6b656e000000000000000000000000000000000000000000000000008152506040518060400160405280600381526020017f4d544b0000000000000000000000000000000000000000000000000000000000815250816000908051906020019062000096929190620001c1565b508060019080519060200190620000af929190620001c1565b5050506000600b60006101000a81548160ff021916908315150217905550620000ed620000e1620000f360201b60201c565b620000fb60201b60201c565b620002d6565b600033905090565b6000600b60019054906101000a900473ffffffffffffffffffffffffffffffffffffffff16905081600b60016101000a81548173ffffffffffffffffffffffffffffffffffffffff021916908373ffffffffffffffffffffffffffffffffffffffff1602179055508173ffffffffffffffffffffffffffffffffffffffff168173ffffffffffffffffffffffffffffffffffffffff167f8be0079c531659141344cd1fd0a4f28419497f9722a3daafe3b4186f6b6457e060405160405180910390a35050565b828054620001cf90620002a0565b90600052602060002090601f016020900481019282620001f357600085556200023f565b82601f106200020e57805160ff19168380011785556200023f565b828001600101855582156200023f579182015b828111156200023e57825182559160200191906001019062000221565b5b5090506200024e919062000252565b5090565b5b808211156200026d57600081600090555060010162000253565b5090565b7f4e487b7100000000000000000000000000000000000000000000000000000000600052602260045260246000fd5b60006002820490506001821680620002b957607f821691505b60208210811415620002d057620002cf62000271565b5b50919050565b613fd580620002e66000396000f3fe608060405234801561001057600080fd5b50600436106101735760003560e01c80635c975abb116100de57806395d89b4111610097578063c87b56dd11610071578063c87b56dd14610410578063d204c45e14610440578063e985e9c51461045c578063f2fde38b1461048c57610173565b806395d89b41146103ba578063a22cb465146103d8578063b88d4fde146103f457610173565b80635c975abb1461030a5780636352211e1461032857806370a0823114610358578063715018a6146103885780638456cb59146103925780638da5cb5b1461039c57610173565b80632f745c59116101305780632f745c591461024c5780632fe24d361461027c5780633f4ba83a1461029857806342842e0e146102a257806342966c68146102be5780634f6ccce7146102da57610173565b806301ffc9a71461017857806306fdde03146101a8578063081812fc146101c6578063095ea7b3146101f657806318160ddd1461021257806323b872dd14610230575b600080fd5b610192600480360381019061018d9190612933565b6104a8565b60405161019f919061297b565b60405180910390f35b6101b06104ba565b6040516101bd9190612a2f565b60405180910390f35b6101e060048036038101906101db9190612a87565b61054c565b6040516101ed9190612af5565b60405180910390f35b610210600480360381019061020b9190612b3c565b6105d1565b005b61021a6106e9565b6040516102279190612b8b565b60405180910390f35b61024a60048036038101906102459190612ba6565b6106f6565b005b61026660048036038101906102619190612b3c565b610756565b6040516102739190612b8b565b60405180910390f35b61029660048036038101906102919190612d2e565b6107fb565b005b6102a0610891565b005b6102bc60048036038101906102b79190612ba6565b610917565b005b6102d860048036038101906102d39190612a87565b610937565b005b6102f460048036038101906102ef9190612a87565b610993565b6040516103019190612b8b565b60405180910390f35b610312610a04565b60405161031f919061297b565b60405180910390f35b610342600480360381019061033d9190612a87565b610a1b565b60405161034f9190612af5565b60405180910390f35b610372600480360381019061036d9190612d77565b610acd565b60405161037f9190612b8b565b60405180910390f35b610390610b85565b005b61039a610c0d565b005b6103a4610c93565b6040516103b19190612af5565b60405180910390f35b6103c2610cbd565b6040516103cf9190612a2f565b60405180910390f35b6103f260048036038101906103ed9190612dd0565b610d4f565b005b61040e60048036038101906104099190612eb1565b610d65565b005b61042a60048036038101906104259190612a87565b610dc7565b6040516104379190612a2f565b60405180910390f35b61045a60048036038101906104559190612f34565b610dd9565b005b61047660048036038101906104719190612f90565b610e0a565b604051610483919061297b565b60405180910390f35b6104a660048036038101906104a19190612d77565b610e9e565b005b60006104b382610f96565b9050919050565b6060600080546104c990612fff565b80601f01602080910402602001604051908101604052809291908181526020018280546104f590612fff565b80156105425780601f1061051757610100808354040283529160200191610542565b820191906000526020600020905b81548152906001019060200180831161052557829003601f168201915b5050505050905090565b600061055782611010565b610596576040517f08c379a000000000000000000000000000000000000000000000000000000000815260040161058d906130a3565b60405180910390fd5b6004600083815260200190815260200160002060009054906101000a900473ffffffffffffffffffffffffffffffffffffffff169050919050565b60006105dc82610a1b565b90508073ffffffffffffffffffffffffffffffffffffffff168373ffffffffffffffffffffffffffffffffffffffff16141561064d576040517f08c379a000000000000000000000000000000000000000000000000000000000815260040161064490613135565b60405180910390fd5b8073ffffffffffffffffffffffffffffffffffffffff1661066c61107c565b73ffffffffffffffffffffffffffffffffffffffff16148061069b575061069a8161069561107c565b610e0a565b5b6106da576040517f08c379a00000000000000000000000000000000000000000000000000000000081526004016106d1906131c7565b60405180910390fd5b6106e48383611084565b505050565b6000600880549050905090565b61070761070161107c565b8261113d565b610746576040517f08c379a000000000000000000000000000000000000000000000000000000000815260040161073d90613259565b60405180910390fd5b61075183838361121b565b505050565b600061076183610acd565b82106107a2576040517f08c379a0000000000000000000000000000000000000000000000000000000008152600401610799906132eb565b60405180910390fd5b600660008473ffffffffffffffffffffffffffffffffffffffff1673ffffffffffffffffffffffffffffffffffffffff168152602001908152602001600020600083815260200190815260200160002054905092915050565b61080361107c565b73ffffffffffffffffffffffffffffffffffffffff16610821610c93565b73ffffffffffffffffffffffffffffffffffffffff1614610877576040517f08c379a000000000000000000000000000000000000000000000000000000000815260040161086e90613357565b60405180910390fd5b80600d908051906020019061088d9291906127e4565b5050565b61089961107c565b73ffffffffffffffffffffffffffffffffffffffff166108b7610c93565b73ffffffffffffffffffffffffffffffffffffffff161461090d576040517f08c379a000000000000000000000000000000000000000000000000000000000815260040161090490613357565b60405180910390fd5b610915611477565b565b61093283838360405180602001604052806000815250610d65565b505050565b61094861094261107c565b8261113d565b610987576040517f08c379a000000000000000000000000000000000000000000000000000000000815260040161097e906133e9565b60405180910390fd5b61099081611519565b50565b600061099d6106e9565b82106109de576040517f08c379a00000000000000000000000000000000000000000000000000000000081526004016109d59061347b565b60405180910390fd5b600882815481106109f2576109f161349b565b5b90600052602060002001549050919050565b6000600b60009054906101000a900460ff16905090565b6000806002600084815260200190815260200160002060009054906101000a900473ffffffffffffffffffffffffffffffffffffffff169050600073ffffffffffffffffffffffffffffffffffffffff168173ffffffffffffffffffffffffffffffffffffffff161415610ac4576040517f08c379a0000000000000000000000000000000000000000000000000000000008152600401610abb9061353c565b60405180910390fd5b80915050919050565b60008073ffffffffffffffffffffffffffffffffffffffff168273ffffffffffffffffffffffffffffffffffffffff161415610b3e576040517f08c379a0000000000000000000000000000000000000000000000000000000008152600401610b35906135ce565b60405180910390fd5b600360008373ffffffffffffffffffffffffffffffffffffffff1673ffffffffffffffffffffffffffffffffffffffff168152602001908152602001600020549050919050565b610b8d61107c565b73ffffffffffffffffffffffffffffffffffffffff16610bab610c93565b73ffffffffffffffffffffffffffffffffffffffff1614610c01576040517f08c379a0000000000000000000000000000000000000000000000000000000008152600401610bf890613357565b60405180910390fd5b610c0b6000611525565b565b610c1561107c565b73ffffffffffffffffffffffffffffffffffffffff16610c33610c93565b73ffffffffffffffffffffffffffffffffffffffff1614610c89576040517f08c379a0000000000000000000000000000000000000000000000000000000008152600401610c8090613357565b60405180910390fd5b610c916115eb565b565b6000600b60019054906101000a900473ffffffffffffffffffffffffffffffffffffffff16905090565b606060018054610ccc90612fff565b80601f0160208091040260200160405190810160405280929190818152602001828054610cf890612fff565b8015610d455780601f10610d1a57610100808354040283529160200191610d45565b820191906000526020600020905b815481529060010190602001808311610d2857829003601f168201915b5050505050905090565b610d61610d5a61107c565b838361168e565b5050565b610d76610d7061107c565b8361113d565b610db5576040517f08c379a0000000000000000000000000000000000000000000000000000000008152600401610dac90613259565b60405180910390fd5b610dc1848484846117fb565b50505050565b6060610dd282611857565b9050919050565b6000610de5600c6119a9565b9050610df1600c6119b7565b610dfb83826119cd565b610e0581836119eb565b505050565b6000600560008473ffffffffffffffffffffffffffffffffffffffff1673ffffffffffffffffffffffffffffffffffffffff16815260200190815260200160002060008373ffffffffffffffffffffffffffffffffffffffff1673ffffffffffffffffffffffffffffffffffffffff16815260200190815260200160002060009054906101000a900460ff16905092915050565b610ea661107c565b73ffffffffffffffffffffffffffffffffffffffff16610ec4610c93565b73ffffffffffffffffffffffffffffffffffffffff1614610f1a576040517f08c379a0000000000000000000000000000000000000000000000000000000008152600401610f1190613357565b60405180910390fd5b600073ffffffffffffffffffffffffffffffffffffffff168173ffffffffffffffffffffffffffffffffffffffff161415610f8a576040517f08c379a0000000000000000000000000000000000000000000000000000000008152600401610f8190613660565b60405180910390fd5b610f9381611525565b50565b60007f780e9d63000000000000000000000000000000000000000000000000000000007bffffffffffffffffffffffffffffffffffffffffffffffffffffffff1916827bffffffffffffffffffffffffffffffffffffffffffffffffffffffff19161480611009575061100882611a5f565b5b9050919050565b60008073ffffffffffffffffffffffffffffffffffffffff166002600084815260200190815260200160002060009054906101000a900473ffffffffffffffffffffffffffffffffffffffff1673ffffffffffffffffffffffffffffffffffffffff1614159050919050565b600033905090565b816004600083815260200190815260200160002060006101000a81548173ffffffffffffffffffffffffffffffffffffffff021916908373ffffffffffffffffffffffffffffffffffffffff160217905550808273ffffffffffffffffffffffffffffffffffffffff166110f783610a1b565b73ffffffffffffffffffffffffffffffffffffffff167f8c5be1e5ebec7d5bd14f71427d1e84f3dd0314c0f7b2291e5b200ac8c7c3b92560405160405180910390a45050565b600061114882611010565b611187576040517f08c379a000000000000000000000000000000000000000000000000000000000815260040161117e906136f2565b60405180910390fd5b600061119283610a1b565b90508073ffffffffffffffffffffffffffffffffffffffff168473ffffffffffffffffffffffffffffffffffffffff16148061120157508373ffffffffffffffffffffffffffffffffffffffff166111e98461054c565b73ffffffffffffffffffffffffffffffffffffffff16145b8061121257506112118185610e0a565b5b91505092915050565b8273ffffffffffffffffffffffffffffffffffffffff1661123b82610a1b565b73ffffffffffffffffffffffffffffffffffffffff1614611291576040517f08c379a000000000000000000000000000000000000000000000000000000000815260040161128890613784565b60405180910390fd5b600073ffffffffffffffffffffffffffffffffffffffff168273ffffffffffffffffffffffffffffffffffffffff161415611301576040517f08c379a00000000000000000000000000000000000000000000000000000000081526004016112f890613816565b60405180910390fd5b61130c838383611b41565b611317600082611084565b6001600360008573ffffffffffffffffffffffffffffffffffffffff1673ffffffffffffffffffffffffffffffffffffffff16815260200190815260200160002060008282546113679190613865565b925050819055506001600360008473ffffffffffffffffffffffffffffffffffffffff1673ffffffffffffffffffffffffffffffffffffffff16815260200190815260200160002060008282546113be9190613899565b92505081905550816002600083815260200190815260200160002060006101000a81548173ffffffffffffffffffffffffffffffffffffffff021916908373ffffffffffffffffffffffffffffffffffffffff160217905550808273ffffffffffffffffffffffffffffffffffffffff168473ffffffffffffffffffffffffffffffffffffffff167fddf252ad1be2c89b69c2b068fc378daa952ba7f163c4a11628f55a4df523b3ef60405160405180910390a4505050565b61147f610a04565b6114be576040517f08c379a00000000000000000000000000000000000000000000000000000000081526004016114b59061393b565b60405180910390fd5b6000600b60006101000a81548160ff0219169083151502179055507f5db9ee0a495bf2e6ff9c91a7834c1ba4fdd244a5e8aa4e537bd38aeae4b073aa61150261107c565b60405161150f9190612af5565b60405180910390a1565b61152281611b99565b50565b6000600b60019054906101000a900473ffffffffffffffffffffffffffffffffffffffff16905081600b60016101000a81548173ffffffffffffffffffffffffffffffffffffffff021916908373ffffffffffffffffffffffffffffffffffffffff1602179055508173ffffffffffffffffffffffffffffffffffffffff168173ffffffffffffffffffffffffffffffffffffffff167f8be0079c531659141344cd1fd0a4f28419497f9722a3daafe3b4186f6b6457e060405160405180910390a35050565b6115f3610a04565b15611633576040517f08c379a000000000000000000000000000000000000000000000000000000000815260040161162a906139a7565b60405180910390fd5b6001600b60006101000a81548160ff0219169083151502179055507f62e78cea01bee320cd4e420270b5ea74000d11b0c9f74754ebdbfc544b05a25861167761107c565b6040516116849190612af5565b60405180910390a1565b8173ffffffffffffffffffffffffffffffffffffffff168373ffffffffffffffffffffffffffffffffffffffff1614156116fd576040517f08c379a00000000000000000000000000000000000000000000000000000000081526004016116f490613a13565b60405180910390fd5b80600560008573ffffffffffffffffffffffffffffffffffffffff1673ffffffffffffffffffffffffffffffffffffffff16815260200190815260200160002060008473ffffffffffffffffffffffffffffffffffffffff1673ffffffffffffffffffffffffffffffffffffffff16815260200190815260200160002060006101000a81548160ff0219169083151502179055508173ffffffffffffffffffffffffffffffffffffffff168373ffffffffffffffffffffffffffffffffffffffff167f17307eab39ab6107e8899845ad3d59bd9653f200f220920489ca2b5937696c31836040516117ee919061297b565b60405180910390a3505050565b61180684848461121b565b61181284848484611bec565b611851576040517f08c379a000000000000000000000000000000000000000000000000000000000815260040161184890613aa5565b60405180910390fd5b50505050565b606061186282611010565b6118a1576040517f08c379a000000000000000000000000000000000000000000000000000000000815260040161189890613b37565b60405180910390fd5b6000600a600084815260200190815260200160002080546118c190612fff565b80601f01602080910402602001604051908101604052809291908181526020018280546118ed90612fff565b801561193a5780601f1061190f5761010080835404028352916020019161193a565b820191906000526020600020905b81548152906001019060200180831161191d57829003601f168201915b50505050509050600061194b611d74565b90506000815114156119615781925050506119a4565b60008251111561199657808260405160200161197e929190613b93565b604051602081830303815290604052925050506119a4565b61199f84611e06565b925050505b919050565b600081600001549050919050565b6001816000016000828254019250508190555050565b6119e7828260405180602001604052806000815250611ead565b5050565b6119f482611010565b611a33576040517f08c379a0000000000000000000000000000000000000000000000000000000008152600401611a2a90613c29565b60405180910390fd5b80600a60008481526020019081526020016000209080519060200190611a5a9291906127e4565b505050565b60007f80ac58cd000000000000000000000000000000000000000000000000000000007bffffffffffffffffffffffffffffffffffffffffffffffffffffffff1916827bffffffffffffffffffffffffffffffffffffffffffffffffffffffff19161480611b2a57507f5b5e139f000000000000000000000000000000000000000000000000000000007bffffffffffffffffffffffffffffffffffffffffffffffffffffffff1916827bffffffffffffffffffffffffffffffffffffffffffffffffffffffff1916145b80611b3a5750611b3982611f08565b5b9050919050565b611b49610a04565b15611b89576040517f08c379a0000000000000000000000000000000000000000000000000000000008152600401611b80906139a7565b60405180910390fd5b611b94838383611f72565b505050565b611ba281612086565b6000600a60008381526020019081526020016000208054611bc290612fff565b905014611be957600a60008281526020019081526020016000206000611be8919061286a565b5b50565b6000611c0d8473ffffffffffffffffffffffffffffffffffffffff16612197565b15611d67578373ffffffffffffffffffffffffffffffffffffffff1663150b7a02611c3661107c565b8786866040518563ffffffff1660e01b8152600401611c589493929190613c9e565b6020604051808303816000875af1925050508015611c9457506040513d601f19601f82011682018060405250810190611c919190613cff565b60015b611d17573d8060008114611cc4576040519150601f19603f3d011682016040523d82523d6000602084013e611cc9565b606091505b50600081511415611d0f576040517f08c379a0000000000000000000000000000000000000000000000000000000008152600401611d0690613aa5565b60405180910390fd5b805181602001fd5b63150b7a0260e01b7bffffffffffffffffffffffffffffffffffffffffffffffffffffffff1916817bffffffffffffffffffffffffffffffffffffffffffffffffffffffff191614915050611d6c565b600190505b949350505050565b6060600d8054611d8390612fff565b80601f0160208091040260200160405190810160405280929190818152602001828054611daf90612fff565b8015611dfc5780601f10611dd157610100808354040283529160200191611dfc565b820191906000526020600020905b815481529060010190602001808311611ddf57829003601f168201915b5050505050905090565b6060611e1182611010565b611e50576040517f08c379a0000000000000000000000000000000000000000000000000000000008152600401611e4790613d9e565b60405180910390fd5b6000611e5a611d74565b90506000815111611e7a5760405180602001604052806000815250611ea5565b80611e84846121aa565b604051602001611e95929190613b93565b6040516020818303038152906040525b915050919050565b611eb7838361230b565b611ec46000848484611bec565b611f03576040517f08c379a0000000000000000000000000000000000000000000000000000000008152600401611efa90613aa5565b60405180910390fd5b505050565b60007f01ffc9a7000000000000000000000000000000000000000000000000000000007bffffffffffffffffffffffffffffffffffffffffffffffffffffffff1916827bffffffffffffffffffffffffffffffffffffffffffffffffffffffff1916149050919050565b611f7d8383836124d9565b600073ffffffffffffffffffffffffffffffffffffffff168373ffffffffffffffffffffffffffffffffffffffff161415611fc057611fbb816124de565b611fff565b8173ffffffffffffffffffffffffffffffffffffffff168373ffffffffffffffffffffffffffffffffffffffff1614611ffe57611ffd8382612527565b5b5b600073ffffffffffffffffffffffffffffffffffffffff168273ffffffffffffffffffffffffffffffffffffffff1614156120425761203d81612694565b612081565b8273ffffffffffffffffffffffffffffffffffffffff168273ffffffffffffffffffffffffffffffffffffffff16146120805761207f8282612765565b5b5b505050565b600061209182610a1b565b905061209f81600084611b41565b6120aa600083611084565b6001600360008373ffffffffffffffffffffffffffffffffffffffff1673ffffffffffffffffffffffffffffffffffffffff16815260200190815260200160002060008282546120fa9190613865565b925050819055506002600083815260200190815260200160002060006101000a81549073ffffffffffffffffffffffffffffffffffffffff021916905581600073ffffffffffffffffffffffffffffffffffffffff168273ffffffffffffffffffffffffffffffffffffffff167fddf252ad1be2c89b69c2b068fc378daa952ba7f163c4a11628f55a4df523b3ef60405160405180910390a45050565b600080823b905060008111915050919050565b606060008214156121f2576040518060400160405280600181526020017f30000000000000000000000000000000000000000000000000000000000000008152509050612306565b600082905060005b6000821461222457808061220d90613dbe565b915050600a8261221d9190613e36565b91506121fa565b60008167ffffffffffffffff8111156122405761223f612c03565b5b6040519080825280601f01601f1916602001820160405280156122725781602001600182028036833780820191505090505b5090505b600085146122ff5760018261228b9190613865565b9150600a8561229a9190613e67565b60306122a69190613899565b60f81b8183815181106122bc576122bb61349b565b5b60200101907effffffffffffffffffffffffffffffffffffffffffffffffffffffffffffff1916908160001a905350600a856122f89190613e36565b9450612276565b8093505050505b919050565b600073ffffffffffffffffffffffffffffffffffffffff168273ffffffffffffffffffffffffffffffffffffffff16141561237b576040517f08c379a000000000000000000000000000000000000000000000000000000000815260040161237290613ee4565b60405180910390fd5b61238481611010565b156123c4576040517f08c379a00000000000000000000000000000000000000000000000000000000081526004016123bb90613f50565b60405180910390fd5b6123d060008383611b41565b6001600360008473ffffffffffffffffffffffffffffffffffffffff1673ffffffffffffffffffffffffffffffffffffffff16815260200190815260200160002060008282546124209190613899565b92505081905550816002600083815260200190815260200160002060006101000a81548173ffffffffffffffffffffffffffffffffffffffff021916908373ffffffffffffffffffffffffffffffffffffffff160217905550808273ffffffffffffffffffffffffffffffffffffffff16600073ffffffffffffffffffffffffffffffffffffffff167fddf252ad1be2c89b69c2b068fc378daa952ba7f163c4a11628f55a4df523b3ef60405160405180910390a45050565b505050565b6008805490506009600083815260200190815260200160002081905550600881908060018154018082558091505060019003906000526020600020016000909190919091505550565b6000600161253484610acd565b61253e9190613865565b9050600060076000848152602001908152602001600020549050818114612623576000600660008673ffffffffffffffffffffffffffffffffffffffff1673ffffffffffffffffffffffffffffffffffffffff168152602001908152602001600020600084815260200190815260200160002054905080600660008773ffffffffffffffffffffffffffffffffffffffff1673ffffffffffffffffffffffffffffffffffffffff168152602001908152602001600020600084815260200190815260200160002081905550816007600083815260200190815260200160002081905550505b6007600084815260200190815260200160002060009055600660008573ffffffffffffffffffffffffffffffffffffffff1673ffffffffffffffffffffffffffffffffffffffff16815260200190815260200160002060008381526020019081526020016000206000905550505050565b600060016008805490506126a89190613865565b90506000600960008481526020019081526020016000205490506000600883815481106126d8576126d761349b565b5b9060005260206000200154905080600883815481106126fa576126f961349b565b5b90600052602060002001819055508160096000838152602001908152602001600020819055506009600085815260200190815260200160002060009055600880548061274957612748613f70565b5b6001900381819060005260206000200160009055905550505050565b600061277083610acd565b905081600660008573ffffffffffffffffffffffffffffffffffffffff1673ffffffffffffffffffffffffffffffffffffffff168152602001908152602001600020600083815260200190815260200160002081905550806007600084815260200190815260200160002081905550505050565b8280546127f090612fff565b90600052602060002090601f0160209004810192826128125760008555612859565b82601f1061282b57805160ff1916838001178555612859565b82800160010185558215612859579182015b8281111561285857825182559160200191906001019061283d565b5b50905061286691906128aa565b5090565b50805461287690612fff565b6000825580601f1061288857506128a7565b601f0160209004906000526020600020908101906128a691906128aa565b5b50565b5b808211156128c35760008160009055506001016128ab565b5090565b6000604051905090565b600080fd5b600080fd5b60007fffffffff0000000000000000000000000000000000000000000000000000000082169050919050565b612910816128db565b811461291b57600080fd5b50565b60008135905061292d81612907565b92915050565b600060208284031215612949576129486128d1565b5b60006129578482850161291e565b91505092915050565b60008115159050919050565b61297581612960565b82525050565b6000602082019050612990600083018461296c565b92915050565b600081519050919050565b600082825260208201905092915050565b60005b838110156129d05780820151818401526020810190506129b5565b838111156129df576000848401525b50505050565b6000601f19601f8301169050919050565b6000612a0182612996565b612a0b81856129a1565b9350612a1b8185602086016129b2565b612a24816129e5565b840191505092915050565b60006020820190508181036000830152612a4981846129f6565b905092915050565b6000819050919050565b612a6481612a51565b8114612a6f57600080fd5b50565b600081359050612a8181612a5b565b92915050565b600060208284031215612a9d57612a9c6128d1565b5b6000612aab84828501612a72565b91505092915050565b600073ffffffffffffffffffffffffffffffffffffffff82169050919050565b6000612adf82612ab4565b9050919050565b612aef81612ad4565b82525050565b6000602082019050612b0a6000830184612ae6565b92915050565b612b1981612ad4565b8114612b2457600080fd5b50565b600081359050612b3681612b10565b92915050565b60008060408385031215612b5357612b526128d1565b5b6000612b6185828601612b27565b9250506020612b7285828601612a72565b9150509250929050565b612b8581612a51565b82525050565b6000602082019050612ba06000830184612b7c565b92915050565b600080600060608486031215612bbf57612bbe6128d1565b5b6000612bcd86828701612b27565b9350506020612bde86828701612b27565b9250506040612bef86828701612a72565b9150509250925092565b600080fd5b600080fd5b7f4e487b7100000000000000000000000000000000000000000000000000000000600052604160045260246000fd5b612c3b826129e5565b810181811067ffffffffffffffff82111715612c5a57612c59612c03565b5b80604052505050565b6000612c6d6128c7565b9050612c798282612c32565b919050565b600067ffffffffffffffff821115612c9957612c98612c03565b5b612ca2826129e5565b9050602081019050919050565b82818337600083830152505050565b6000612cd1612ccc84612c7e565b612c63565b905082815260208101848484011115612ced57612cec612bfe565b5b612cf8848285612caf565b509392505050565b600082601f830112612d1557612d14612bf9565b5b8135612d25848260208601612cbe565b91505092915050565b600060208284031215612d4457612d436128d1565b5b600082013567ffffffffffffffff811115612d6257612d616128d6565b5b612d6e84828501612d00565b91505092915050565b600060208284031215612d8d57612d8c6128d1565b5b6000612d9b84828501612b27565b91505092915050565b612dad81612960565b8114612db857600080fd5b50565b600081359050612dca81612da4565b92915050565b60008060408385031215612de757612de66128d1565b5b6000612df585828601612b27565b9250506020612e0685828601612dbb565b9150509250929050565b600067ffffffffffffffff821115612e2b57612e2a612c03565b5b612e34826129e5565b9050602081019050919050565b6000612e54612e4f84612e10565b612c63565b905082815260208101848484011115612e7057612e6f612bfe565b5b612e7b848285612caf565b509392505050565b600082601f830112612e9857612e97612bf9565b5b8135612ea8848260208601612e41565b91505092915050565b60008060008060808587031215612ecb57612eca6128d1565b5b6000612ed987828801612b27565b9450506020612eea87828801612b27565b9350506040612efb87828801612a72565b925050606085013567ffffffffffffffff811115612f1c57612f1b6128d6565b5b612f2887828801612e83565b91505092959194509250565b60008060408385031215612f4b57612f4a6128d1565b5b6000612f5985828601612b27565b925050602083013567ffffffffffffffff811115612f7a57612f796128d6565b5b612f8685828601612d00565b9150509250929050565b60008060408385031215612fa757612fa66128d1565b5b6000612fb585828601612b27565b9250506020612fc685828601612b27565b9150509250929050565b7f4e487b7100000000000000000000000000000000000000000000000000000000600052602260045260246000fd5b6000600282049050600182168061301757607f821691505b6020821081141561302b5761302a612fd0565b5b50919050565b7f4552433732313a20617070726f76656420717565727920666f72206e6f6e657860008201527f697374656e7420746f6b656e0000000000000000000000000000000000000000602082015250565b600061308d602c836129a1565b915061309882613031565b604082019050919050565b600060208201905081810360008301526130bc81613080565b9050919050565b7f4552433732313a20617070726f76616c20746f2063757272656e74206f776e6560008201527f7200000000000000000000000000000000000000000000000000000000000000602082015250565b600061311f6021836129a1565b915061312a826130c3565b604082019050919050565b6000602082019050818103600083015261314e81613112565b9050919050565b7f4552433732313a20617070726f76652063616c6c6572206973206e6f74206f7760008201527f6e6572206e6f7220617070726f76656420666f7220616c6c0000000000000000602082015250565b60006131b16038836129a1565b91506131bc82613155565b604082019050919050565b600060208201905081810360008301526131e0816131a4565b9050919050565b7f4552433732313a207472616e736665722063616c6c6572206973206e6f74206f60008201527f776e6572206e6f7220617070726f766564000000000000000000000000000000602082015250565b60006132436031836129a1565b915061324e826131e7565b604082019050919050565b6000602082019050818103600083015261327281613236565b9050919050565b7f455243373231456e756d657261626c653a206f776e657220696e646578206f7560008201527f74206f6620626f756e6473000000000000000000000000000000000000000000602082015250565b60006132d5602b836129a1565b91506132e082613279565b604082019050919050565b60006020820190508181036000830152613304816132c8565b9050919050565b7f4f776e61626c653a2063616c6c6572206973206e6f7420746865206f776e6572600082015250565b60006133416020836129a1565b915061334c8261330b565b602082019050919050565b6000602082019050818103600083015261337081613334565b9050919050565b7f4552433732314275726e61626c653a2063616c6c6572206973206e6f74206f7760008201527f6e6572206e6f7220617070726f76656400000000000000000000000000000000602082015250565b60006133d36030836129a1565b91506133de82613377565b604082019050919050565b60006020820190508181036000830152613402816133c6565b9050919050565b7f455243373231456e756d657261626c653a20676c6f62616c20696e646578206f60008201527f7574206f6620626f756e64730000000000000000000000000000000000000000602082015250565b6000613465602c836129a1565b915061347082613409565b604082019050919050565b6000602082019050818103600083015261349481613458565b9050919050565b7f4e487b7100000000000000000000000000000000000000000000000000000000600052603260045260246000fd5b7f4552433732313a206f776e657220717565727920666f72206e6f6e657869737460008201527f656e7420746f6b656e0000000000000000000000000000000000000000000000602082015250565b60006135266029836129a1565b9150613531826134ca565b604082019050919050565b6000602082019050818103600083015261355581613519565b9050919050565b7f4552433732313a2062616c616e636520717565727920666f7220746865207a6560008201527f726f206164647265737300000000000000000000000000000000000000000000602082015250565b60006135b8602a836129a1565b91506135c38261355c565b604082019050919050565b600060208201905081810360008301526135e7816135ab565b9050919050565b7f4f776e61626c653a206e6577206f776e657220697320746865207a65726f206160008201527f6464726573730000000000000000000000000000000000000000000000000000602082015250565b600061364a6026836129a1565b9150613655826135ee565b604082019050919050565b600060208201905081810360008301526136798161363d565b9050919050565b7f4552433732313a206f70657261746f7220717565727920666f72206e6f6e657860008201527f697374656e7420746f6b656e0000000000000000000000000000000000000000602082015250565b60006136dc602c836129a1565b91506136e782613680565b604082019050919050565b6000602082019050818103600083015261370b816136cf565b9050919050565b7f4552433732313a207472616e73666572206f6620746f6b656e2074686174206960008201527f73206e6f74206f776e0000000000000000000000000000000000000000000000602082015250565b600061376e6029836129a1565b915061377982613712565b604082019050919050565b6000602082019050818103600083015261379d81613761565b9050919050565b7f4552433732313a207472616e7366657220746f20746865207a65726f2061646460008201527f7265737300000000000000000000000000000000000000000000000000000000602082015250565b60006138006024836129a1565b915061380b826137a4565b604082019050919050565b6000602082019050818103600083015261382f816137f3565b9050919050565b7f4e487b7100000000000000000000000000000000000000000000000000000000600052601160045260246000fd5b600061387082612a51565b915061387b83612a51565b92508282101561388e5761388d613836565b5b828203905092915050565b60006138a482612a51565b91506138af83612a51565b9250827fffffffffffffffffffffffffffffffffffffffffffffffffffffffffffffffff038211156138e4576138e3613836565b5b828201905092915050565b7f5061757361626c653a206e6f7420706175736564000000000000000000000000600082015250565b60006139256014836129a1565b9150613930826138ef565b602082019050919050565b6000602082019050818103600083015261395481613918565b9050919050565b7f5061757361626c653a2070617573656400000000000000000000000000000000600082015250565b60006139916010836129a1565b915061399c8261395b565b602082019050919050565b600060208201905081810360008301526139c081613984565b9050919050565b7f4552433732313a20617070726f766520746f2063616c6c657200000000000000600082015250565b60006139fd6019836129a1565b9150613a08826139c7565b602082019050919050565b60006020820190508181036000830152613a2c816139f0565b9050919050565b7f4552433732313a207472616e7366657220746f206e6f6e20455243373231526560008201527f63656976657220696d706c656d656e7465720000000000000000000000000000602082015250565b6000613a8f6032836129a1565b9150613a9a82613a33565b604082019050919050565b60006020820190508181036000830152613abe81613a82565b9050919050565b7f45524337323155524953746f726167653a2055524920717565727920666f722060008201527f6e6f6e6578697374656e7420746f6b656e000000000000000000000000000000602082015250565b6000613b216031836129a1565b9150613b2c82613ac5565b604082019050919050565b60006020820190508181036000830152613b5081613b14565b9050919050565b600081905092915050565b6000613b6d82612996565b613b778185613b57565b9350613b878185602086016129b2565b80840191505092915050565b6000613b9f8285613b62565b9150613bab8284613b62565b91508190509392505050565b7f45524337323155524953746f726167653a2055524920736574206f66206e6f6e60008201527f6578697374656e7420746f6b656e000000000000000000000000000000000000602082015250565b6000613c13602e836129a1565b9150613c1e82613bb7565b604082019050919050565b60006020820190508181036000830152613c4281613c06565b9050919050565b600081519050919050565b600082825260208201905092915050565b6000613c7082613c49565b613c7a8185613c54565b9350613c8a8185602086016129b2565b613c93816129e5565b840191505092915050565b6000608082019050613cb36000830187612ae6565b613cc06020830186612ae6565b613ccd6040830185612b7c565b8181036060830152613cdf8184613c65565b905095945050505050565b600081519050613cf981612907565b92915050565b600060208284031215613d1557613d146128d1565b5b6000613d2384828501613cea565b91505092915050565b7f4552433732314d657461646174613a2055524920717565727920666f72206e6f60008201527f6e6578697374656e7420746f6b656e0000000000000000000000000000000000602082015250565b6000613d88602f836129a1565b9150613d9382613d2c565b604082019050919050565b60006020820190508181036000830152613db781613d7b565b9050919050565b6000613dc982612a51565b91507fffffffffffffffffffffffffffffffffffffffffffffffffffffffffffffffff821415613dfc57613dfb613836565b5b600182019050919050565b7f4e487b7100000000000000000000000000000000000000000000000000000000600052601260045260246000fd5b6000613e4182612a51565b9150613e4c83612a51565b925082613e5c57613e5b613e07565b5b828204905092915050565b6000613e7282612a51565b9150613e7d83612a51565b925082613e8d57613e8c613e07565b5b828206905092915050565b7f4552433732313a206d696e7420746f20746865207a65726f2061646472657373600082015250565b6000613ece6020836129a1565b9150613ed982613e98565b602082019050919050565b60006020820190508181036000830152613efd81613ec1565b9050919050565b7f4552433732313a20746f6b656e20616c7265616479206d696e74656400000000600082015250565b6000613f3a601c836129a1565b9150613f4582613f04565b602082019050919050565b60006020820190508181036000830152613f6981613f2d565b9050919050565b7f4e487b7100000000000000000000000000000000000000000000000000000000600052603160045260246000fdfea2646970667358221220334989834ccbf66ac7a11b8c1b8fdb8b306bce22e0dc130ae82d7fbaf481291864736f6c634300080a0033",
  "immutableReferences": {},
  "source": "// SPDX-License-Identifier: MIT\npragma solidity 0.8.10;\n\nimport \"../node_modules/@openzeppelin/contracts/token/ERC721/ERC721.sol\";\nimport \"../node_modules/@openzeppelin/contracts/token/ERC721/extensions/ERC721Enumerable.sol\";\nimport \"../node_modules/@openzeppelin/contracts/token/ERC721/extensions/ERC721URIStorage.sol\";\nimport \"../node_modules/@openzeppelin/contracts/security/Pausable.sol\";\nimport \"../node_modules/@openzeppelin/contracts/access/Ownable.sol\";\nimport \"../node_modules/@openzeppelin/contracts/token/ERC721/extensions/ERC721Burnable.sol\";\nimport \"../node_modules/@openzeppelin/contracts/utils/Counters.sol\";\n\n/// @custom:security-contact filipwx7@gmail.com\ncontract MyToken is ERC721, ERC721Enumerable, ERC721URIStorage, Pausable, Ownable, ERC721Burnable {\n    using Counters for Counters.Counter;\n\n    Counters.Counter private _tokenIdCounter;\n    string private baseURL;\n\n    constructor() ERC721(\"MyToken\", \"MTK\") {}\n\n    function _baseURI() internal view override returns (string memory) {\n        return baseURL;\n    }\n\n    function pause() public onlyOwner {\n        _pause();\n    }\n\n    function unpause() public onlyOwner {\n        _unpause();\n    }\n\n    function changeBaseURL (string memory _baseUrl) public onlyOwner  {\n        baseURL = _baseUrl;\n    }\n\n    function safeMint(address to, string memory uri) public {\n        uint256 tokenId = _tokenIdCounter.current();\n        _tokenIdCounter.increment();\n        _safeMint(to, tokenId);\n        _setTokenURI(tokenId, uri);\n    }\n\n    function _beforeTokenTransfer(address from, address to, uint256 tokenId) internal whenNotPaused override(ERC721, ERC721Enumerable) {\n        super._beforeTokenTransfer(from, to, tokenId);\n    }\n\n    function _burn(uint256 tokenId) internal override(ERC721, ERC721URIStorage) {\n        super._burn(tokenId);\n    }\n\n    function tokenURI(uint256 tokenId) public view override(ERC721, ERC721URIStorage) returns (string memory) {\n        return super.tokenURI(tokenId);\n    }\n\n    function supportsInterface(bytes4 interfaceId) public view override(ERC721, ERC721Enumerable) returns (bool) {\n        return super.supportsInterface(interfaceId);\n    }\n}",
  "sourcePath": "/home/machado/Documents/projetos/raffle-app/smartCT/contracts/NFT.sol",
  "compiler": {
    "name": "solc",
    "version": "0.8.10+commit.fc410830.Emscripten.clang"
  },
  "schemaVersion": "3.4.3",
  "updatedAt": "2021-12-16T01:12:30.463Z",
  "devdoc": {
    "custom:security-contact": "filipwx7@gmail.com",
    "kind": "dev",
    "methods": {
      "approve(address,uint256)": {
        "details": "See {IERC721-approve}."
      },
      "balanceOf(address)": {
        "details": "See {IERC721-balanceOf}."
      },
      "burn(uint256)": {
        "details": "Burns `tokenId`. See {ERC721-_burn}. Requirements: - The caller must own `tokenId` or be an approved operator."
      },
      "getApproved(uint256)": {
        "details": "See {IERC721-getApproved}."
      },
      "isApprovedForAll(address,address)": {
        "details": "See {IERC721-isApprovedForAll}."
      },
      "name()": {
        "details": "See {IERC721Metadata-name}."
      },
      "owner()": {
        "details": "Returns the address of the current owner."
      },
      "ownerOf(uint256)": {
        "details": "See {IERC721-ownerOf}."
      },
      "paused()": {
        "details": "Returns true if the contract is paused, and false otherwise."
      },
      "renounceOwnership()": {
        "details": "Leaves the contract without owner. It will not be possible to call `onlyOwner` functions anymore. Can only be called by the current owner. NOTE: Renouncing ownership will leave the contract without an owner, thereby removing any functionality that is only available to the owner."
      },
      "safeTransferFrom(address,address,uint256)": {
        "details": "See {IERC721-safeTransferFrom}."
      },
      "safeTransferFrom(address,address,uint256,bytes)": {
        "details": "See {IERC721-safeTransferFrom}."
      },
      "setApprovalForAll(address,bool)": {
        "details": "See {IERC721-setApprovalForAll}."
      },
      "symbol()": {
        "details": "See {IERC721Metadata-symbol}."
      },
      "tokenByIndex(uint256)": {
        "details": "See {IERC721Enumerable-tokenByIndex}."
      },
      "tokenOfOwnerByIndex(address,uint256)": {
        "details": "See {IERC721Enumerable-tokenOfOwnerByIndex}."
      },
      "totalSupply()": {
        "details": "See {IERC721Enumerable-totalSupply}."
      },
      "transferFrom(address,address,uint256)": {
        "details": "See {IERC721-transferFrom}."
      },
      "transferOwnership(address)": {
        "details": "Transfers ownership of the contract to a new account (`newOwner`). Can only be called by the current owner."
      }
    },
    "version": 1
  },
  "userdoc": {
    "kind": "user",
    "methods": {},
    "version": 1
  }
}