{
  "contractName": "Raffle",
  "abi": [
    {
      "inputs": [],
      "stateMutability": "nonpayable",
      "type": "constructor"
    },
    {
      "anonymous": false,
      "inputs": [
        {
          "indexed": false,
          "internalType": "string",
          "name": "",
          "type": "string"
        }
      ],
      "name": "TicketBought",
      "type": "event"
    },
    {
      "anonymous": false,
      "inputs": [],
      "name": "TicketDrawn",
      "type": "event"
    },
    {
      "inputs": [],
      "name": "dateChange",
      "outputs": [
        {
          "internalType": "uint256",
          "name": "",
          "type": "uint256"
        }
      ],
      "stateMutability": "view",
      "type": "function",
      "constant": true
    },
    {
      "inputs": [],
      "name": "dateRun",
      "outputs": [
        {
          "internalType": "uint256",
          "name": "",
          "type": "uint256"
        }
      ],
      "stateMutability": "view",
      "type": "function",
      "constant": true
    },
    {
      "inputs": [
        {
          "internalType": "uint256",
          "name": "",
          "type": "uint256"
        }
      ],
      "name": "drawnTickets",
      "outputs": [
        {
          "internalType": "string",
          "name": "fullname",
          "type": "string"
        },
        {
          "internalType": "string",
          "name": "email",
          "type": "string"
        },
        {
          "internalType": "uint256",
          "name": "block",
          "type": "uint256"
        },
        {
          "internalType": "address",
          "name": "wallet",
          "type": "address"
        }
      ],
      "stateMutability": "view",
      "type": "function",
      "constant": true
    },
    {
      "inputs": [],
      "name": "owner",
      "outputs": [
        {
          "internalType": "address",
          "name": "",
          "type": "address"
        }
      ],
      "stateMutability": "view",
      "type": "function",
      "constant": true
    },
    {
      "inputs": [
        {
          "internalType": "uint256",
          "name": "",
          "type": "uint256"
        }
      ],
      "name": "tickets",
      "outputs": [
        {
          "internalType": "string",
          "name": "fullname",
          "type": "string"
        },
        {
          "internalType": "string",
          "name": "email",
          "type": "string"
        },
        {
          "internalType": "uint256",
          "name": "block",
          "type": "uint256"
        },
        {
          "internalType": "address",
          "name": "wallet",
          "type": "address"
        }
      ],
      "stateMutability": "view",
      "type": "function",
      "constant": true
    },
    {
      "inputs": [
        {
          "internalType": "address",
          "name": "",
          "type": "address"
        }
      ],
      "name": "users",
      "outputs": [
        {
          "internalType": "string",
          "name": "fullname",
          "type": "string"
        },
        {
          "internalType": "string",
          "name": "email",
          "type": "string"
        },
        {
          "internalType": "uint256",
          "name": "block",
          "type": "uint256"
        },
        {
          "internalType": "address",
          "name": "wallet",
          "type": "address"
        }
      ],
      "stateMutability": "view",
      "type": "function",
      "constant": true
    },
    {
      "inputs": [
        {
          "internalType": "string",
          "name": "fullname",
          "type": "string"
        },
        {
          "internalType": "string",
          "name": "email",
          "type": "string"
        }
      ],
      "name": "buyTicket",
      "outputs": [
        {
          "internalType": "bool",
          "name": "confirmation",
          "type": "bool"
        }
      ],
      "stateMutability": "nonpayable",
      "type": "function"
    },
    {
      "inputs": [],
      "name": "currentWinner",
      "outputs": [
        {
          "internalType": "string",
          "name": "fullname",
          "type": "string"
        },
        {
          "internalType": "string",
          "name": "email",
          "type": "string"
        },
        {
          "internalType": "uint256",
          "name": "block",
          "type": "uint256"
        },
        {
          "internalType": "address",
          "name": "wallet",
          "type": "address"
        }
      ],
      "stateMutability": "view",
      "type": "function",
      "constant": true
    },
    {
      "inputs": [],
      "name": "size",
      "outputs": [
        {
          "internalType": "uint256",
          "name": "",
          "type": "uint256"
        }
      ],
      "stateMutability": "view",
      "type": "function",
      "constant": true
    },
    {
      "inputs": [],
      "name": "getTickets",
      "outputs": [
        {
          "components": [
            {
              "internalType": "string",
              "name": "fullname",
              "type": "string"
            },
            {
              "internalType": "string",
              "name": "email",
              "type": "string"
            },
            {
              "internalType": "uint256",
              "name": "block",
              "type": "uint256"
            },
            {
              "internalType": "address",
              "name": "wallet",
              "type": "address"
            }
          ],
          "internalType": "struct Raffle.Ticket[]",
          "name": "",
          "type": "tuple[]"
        }
      ],
      "stateMutability": "view",
      "type": "function",
      "constant": true
    },
    {
      "inputs": [],
      "name": "drawnSize",
      "outputs": [
        {
          "internalType": "uint256",
          "name": "",
          "type": "uint256"
        }
      ],
      "stateMutability": "view",
      "type": "function",
      "constant": true
    },
    {
      "inputs": [],
      "name": "drawTicket",
      "outputs": [],
      "stateMutability": "nonpayable",
      "type": "function"
    }
  ],
  "bytecode": "0x608060405234801561001057600080fd5b50336000806101000a81548173ffffffffffffffffffffffffffffffffffffffff021916908373ffffffffffffffffffffffffffffffffffffffff160217905550426004819055506123ce806100676000396000f3fe608060405234801561001057600080fd5b50600436106100b45760003560e01c80638da5cb5b116100715780638da5cb5b14610194578063949d225d146101b2578063a87430ba146101d0578063aabe2fe314610203578063acf88e2c14610224578063fb6f74ed14610257576100b4565b8063466c49f4146100b9578063478a6d10146100d75780634ed02622146100f557806350b44712146101135780635fe2d39b146101465780637623b4c314610164575b600080fd5b6100c1610261565b6040516100ce9190611a83565b60405180910390f35b6100df610267565b6040516100ec9190611a83565b60405180910390f35b6100fd61026d565b60405161010a9190611cb3565b60405180910390f35b61012d60048036038101906101289190611d15565b6104cc565b60405161013d9493929190611d9b565b60405180910390f35b61014e61063c565b60405161015b9190611a83565b60405180910390f35b61017e60048036038101906101799190611f23565b610649565b60405161018b9190611fb6565b60405180910390f35b61019c610aad565b6040516101a99190611fd1565b60405180910390f35b6101ba610ad1565b6040516101c79190611a83565b60405180910390f35b6101ea60048036038101906101e59190612018565b610ade565b6040516101fa9493929190611d9b565b60405180910390f35b61020b610c3e565b60405161021b9493929190611d9b565b60405180910390f35b61023e60048036038101906102399190611d15565b610ea7565b60405161024e9493929190611d9b565b60405180910390f35b61025f611017565b005b60055481565b60045481565b6060600060018054905067ffffffffffffffff8111156102905761028f611df8565b5b6040519080825280602002602001820160405280156102c957816020015b6102b6611832565b8152602001906001900390816102ae5790505b50905060005b6001805490508110156104c4576000600182815481106102f2576102f1612045565b5b906000526020600020906004020190508060405180608001604052908160008201805461031e906120a3565b80601f016020809104026020016040519081016040528092919081815260200182805461034a906120a3565b80156103975780601f1061036c57610100808354040283529160200191610397565b820191906000526020600020905b81548152906001019060200180831161037a57829003601f168201915b505050505081526020016001820180546103b0906120a3565b80601f01602080910402602001604051908101604052809291908181526020018280546103dc906120a3565b80156104295780601f106103fe57610100808354040283529160200191610429565b820191906000526020600020905b81548152906001019060200180831161040c57829003601f168201915b50505050508152602001600282015481526020016003820160009054906101000a900473ffffffffffffffffffffffffffffffffffffffff1673ffffffffffffffffffffffffffffffffffffffff1673ffffffffffffffffffffffffffffffffffffffff16815250508383815181106104a5576104a4612045565b5b60200260200101819052505080806104bc90612104565b9150506102cf565b508091505090565b600181815481106104dc57600080fd5b90600052602060002090600402016000915090508060000180546104ff906120a3565b80601f016020809104026020016040519081016040528092919081815260200182805461052b906120a3565b80156105785780601f1061054d57610100808354040283529160200191610578565b820191906000526020600020905b81548152906001019060200180831161055b57829003601f168201915b50505050509080600101805461058d906120a3565b80601f01602080910402602001604051908101604052809291908181526020018280546105b9906120a3565b80156106065780601f106105db57610100808354040283529160200191610606565b820191906000526020600020905b8154815290600101906020018083116105e957829003601f168201915b5050505050908060020154908060030160009054906101000a900473ffffffffffffffffffffffffffffffffffffffff16905084565b6000600280549050905090565b6000806000905060005b81158015610665575060018054905081105b15610890576000600182815481106106805761067f612045565b5b90600052602060002090600402016040518060800160405290816000820180546106a9906120a3565b80601f01602080910402602001604051908101604052809291908181526020018280546106d5906120a3565b80156107225780601f106106f757610100808354040283529160200191610722565b820191906000526020600020905b81548152906001019060200180831161070557829003601f168201915b5050505050815260200160018201805461073b906120a3565b80601f0160208091040260200160405190810160405280929190818152602001828054610767906120a3565b80156107b45780601f10610789576101008083540402835291602001916107b4565b820191906000526020600020905b81548152906001019060200180831161079757829003601f168201915b50505050508152602001600282015481526020016003820160009054906101000a900473ffffffffffffffffffffffffffffffffffffffff1673ffffffffffffffffffffffffffffffffffffffff1673ffffffffffffffffffffffffffffffffffffffff1681525050905080602001516040516020016108349190612189565b604051602081830303815290604052805190602001208560405160200161085b9190612189565b60405160208183030381529060405280519060200120141561087c57600192505b50808061088890612104565b915050610653565b5080610aa157600060405180608001604052808681526020018581526020014381526020013373ffffffffffffffffffffffffffffffffffffffff16815250905060018190806001815401808255809150506001900390600052602060002090600402016000909190919091506000820151816000019080519060200190610919929190611870565b506020820151816001019080519060200190610936929190611870565b506040820151816002015560608201518160030160006101000a81548173ffffffffffffffffffffffffffffffffffffffff021916908373ffffffffffffffffffffffffffffffffffffffff160217905550505080600360003373ffffffffffffffffffffffffffffffffffffffff1673ffffffffffffffffffffffffffffffffffffffff16815260200190815260200160002060008201518160000190805190602001906109e6929190611870565b506020820151816001019080519060200190610a03929190611870565b506040820151816002015560608201518160030160006101000a81548173ffffffffffffffffffffffffffffffffffffffff021916908373ffffffffffffffffffffffffffffffffffffffff1602179055509050507f6ab1f27b3b6faa6faf1ef2a2d6756920e3af87ebea9360a83f67e2f7971ac65f84604051610a8791906121a0565b60405180910390a142600481905550600192505050610aa7565b60009150505b92915050565b60008054906101000a900473ffffffffffffffffffffffffffffffffffffffff1681565b6000600180549050905090565b6003602052806000526040600020600091509050806000018054610b01906120a3565b80601f0160208091040260200160405190810160405280929190818152602001828054610b2d906120a3565b8015610b7a5780601f10610b4f57610100808354040283529160200191610b7a565b820191906000526020600020905b815481529060010190602001808311610b5d57829003601f168201915b505050505090806001018054610b8f906120a3565b80601f0160208091040260200160405190810160405280929190818152602001828054610bbb906120a3565b8015610c085780601f10610bdd57610100808354040283529160200191610c08565b820191906000526020600020905b815481529060010190602001808311610beb57829003601f168201915b5050505050908060020154908060030160009054906101000a900473ffffffffffffffffffffffffffffffffffffffff16905084565b60608060008060006002805490501115610e715760026001600280549050610c6691906121c2565b81548110610c7757610c76612045565b5b906000526020600020906004020160000160026001600280549050610c9c91906121c2565b81548110610cad57610cac612045565b5b906000526020600020906004020160010160026001600280549050610cd291906121c2565b81548110610ce357610ce2612045565b5b90600052602060002090600402016002015460026001600280549050610d0991906121c2565b81548110610d1a57610d19612045565b5b906000526020600020906004020160030160009054906101000a900473ffffffffffffffffffffffffffffffffffffffff16838054610d58906120a3565b80601f0160208091040260200160405190810160405280929190818152602001828054610d84906120a3565b8015610dd15780601f10610da657610100808354040283529160200191610dd1565b820191906000526020600020905b815481529060010190602001808311610db457829003601f168201915b50505050509350828054610de4906120a3565b80601f0160208091040260200160405190810160405280929190818152602001828054610e10906120a3565b8015610e5d5780601f10610e3257610100808354040283529160200191610e5d565b820191906000526020600020905b815481529060010190602001808311610e4057829003601f168201915b505050505092509350935093509350610ea1565b60003360405180602001604052806000815250919060405180602001604052806000815250919093509350935093505b90919293565b60028181548110610eb757600080fd5b9060005260206000209060040201600091509050806000018054610eda906120a3565b80601f0160208091040260200160405190810160405280929190818152602001828054610f06906120a3565b8015610f535780601f10610f2857610100808354040283529160200191610f53565b820191906000526020600020905b815481529060010190602001808311610f3657829003601f168201915b505050505090806001018054610f68906120a3565b80601f0160208091040260200160405190810160405280929190818152602001828054610f94906120a3565b8015610fe15780601f10610fb657610100808354040283529160200191610fe1565b820191906000526020600020905b815481529060010190602001808311610fc457829003601f168201915b5050505050908060020154908060030160009054906101000a900473ffffffffffffffffffffffffffffffffffffffff16905084565b60008054906101000a900473ffffffffffffffffffffffffffffffffffffffff1673ffffffffffffffffffffffffffffffffffffffff163373ffffffffffffffffffffffffffffffffffffffff16146110a5576040517f08c379a000000000000000000000000000000000000000000000000000000000815260040161109c90612268565b60405180910390fd5b60008054906101000a900473ffffffffffffffffffffffffffffffffffffffff1673ffffffffffffffffffffffffffffffffffffffff163373ffffffffffffffffffffffffffffffffffffffff16146110fd57600080fd5b426005541061110b57600080fd5b6000611115611257565b905060026001828154811061112d5761112c612045565b5b906000526020600020906004020190806001815401808255809150506001900390600052602060002090600402016000909190919091506000820181600001908054611178906120a3565b6111839291906118f6565b506001820181600101908054611198906120a3565b6111a39291906118f6565b50600282015481600201556003820160009054906101000a900473ffffffffffffffffffffffffffffffffffffffff168160030160006101000a81548173ffffffffffffffffffffffffffffffffffffffff021916908373ffffffffffffffffffffffffffffffffffffffff16021790555050506112208161127b565b7fcf974b08111a894573bb4efcaf782eb02c026f7d6c365c1333cbdf3e3bf4800960405160405180910390a16112546114c5565b50565b6000806001805490506112686117e7565b61127291906122b7565b90508091505090565b60008054906101000a900473ffffffffffffffffffffffffffffffffffffffff1673ffffffffffffffffffffffffffffffffffffffff163373ffffffffffffffffffffffffffffffffffffffff1614611309576040517f08c379a000000000000000000000000000000000000000000000000000000000815260040161130090612268565b60405180910390fd5b60008190505b60018054905060018261132291906122e8565b101561143e576001808261133691906122e8565b8154811061134757611346612045565b5b90600052602060002090600402016001828154811061136957611368612045565b5b9060005260206000209060040201600082018160000190805461138b906120a3565b6113969291906118f6565b5060018201816001019080546113ab906120a3565b6113b69291906118f6565b50600282015481600201556003820160009054906101000a900473ffffffffffffffffffffffffffffffffffffffff168160030160006101000a81548173ffffffffffffffffffffffffffffffffffffffff021916908373ffffffffffffffffffffffffffffffffffffffff160217905550905050808061143690612104565b91505061130f565b50600180808054905061145191906121c2565b8154811061146257611461612045565b5b9060005260206000209060040201600080820160006114819190611983565b6001820160006114919190611983565b60028201600090556003820160006101000a81549073ffffffffffffffffffffffffffffffffffffffff0219169055505050565b60008054906101000a900473ffffffffffffffffffffffffffffffffffffffff1673ffffffffffffffffffffffffffffffffffffffff163373ffffffffffffffffffffffffffffffffffffffff1614611553576040517f08c379a000000000000000000000000000000000000000000000000000000000815260040161154a90612268565b60405180910390fd5b60005b6001805490508110156117c15760006001828154811061157957611578612045565b5b90600052602060002090600402016040518060800160405290816000820180546115a2906120a3565b80601f01602080910402602001604051908101604052809291908181526020018280546115ce906120a3565b801561161b5780601f106115f05761010080835404028352916020019161161b565b820191906000526020600020905b8154815290600101906020018083116115fe57829003601f168201915b50505050508152602001600182018054611634906120a3565b80601f0160208091040260200160405190810160405280929190818152602001828054611660906120a3565b80156116ad5780601f10611682576101008083540402835291602001916116ad565b820191906000526020600020905b81548152906001019060200180831161169057829003601f168201915b50505050508152602001600282015481526020016003820160009054906101000a900473ffffffffffffffffffffffffffffffffffffffff1673ffffffffffffffffffffffffffffffffffffffff1673ffffffffffffffffffffffffffffffffffffffff1681525050905060036000826060015173ffffffffffffffffffffffffffffffffffffffff1673ffffffffffffffffffffffffffffffffffffffff1681526020019081526020016000206000808201600061176c9190611983565b60018201600061177c9190611983565b60028201600090556003820160006101000a81549073ffffffffffffffffffffffffffffffffffffffff021916905550505080806117b990612104565b915050611556565b50600160006117d091906119c3565b62093a80426117df91906122e8565b600581905550565b60008043905060006341c64e6d9050600061303990506000640100000000905080828585611815919061233e565b61181f91906122e8565b61182991906122b7565b94505050505090565b6040518060800160405280606081526020016060815260200160008152602001600073ffffffffffffffffffffffffffffffffffffffff1681525090565b82805461187c906120a3565b90600052602060002090601f01602090048101928261189e57600085556118e5565b82601f106118b757805160ff19168380011785556118e5565b828001600101855582156118e5579182015b828111156118e45782518255916020019190600101906118c9565b5b5090506118f291906119e7565b5090565b828054611902906120a3565b90600052602060002090601f0160209004810192826119245760008555611972565b82601f106119355780548555611972565b8280016001018555821561197257600052602060002091601f016020900482015b82811115611971578254825591600101919060010190611956565b5b50905061197f91906119e7565b5090565b50805461198f906120a3565b6000825580601f106119a157506119c0565b601f0160209004906000526020600020908101906119bf91906119e7565b5b50565b50805460008255600402906000526020600020908101906119e49190611a04565b50565b5b80821115611a005760008160009055506001016119e8565b5090565b5b80821115611a665760008082016000611a1e9190611983565b600182016000611a2e9190611983565b60028201600090556003820160006101000a81549073ffffffffffffffffffffffffffffffffffffffff021916905550600401611a05565b5090565b6000819050919050565b611a7d81611a6a565b82525050565b6000602082019050611a986000830184611a74565b92915050565b600081519050919050565b600082825260208201905092915050565b6000819050602082019050919050565b600081519050919050565b600082825260208201905092915050565b60005b83811015611b04578082015181840152602081019050611ae9565b83811115611b13576000848401525b50505050565b6000601f19601f8301169050919050565b6000611b3582611aca565b611b3f8185611ad5565b9350611b4f818560208601611ae6565b611b5881611b19565b840191505092915050565b611b6c81611a6a565b82525050565b600073ffffffffffffffffffffffffffffffffffffffff82169050919050565b6000611b9d82611b72565b9050919050565b611bad81611b92565b82525050565b60006080830160008301518482036000860152611bd08282611b2a565b91505060208301518482036020860152611bea8282611b2a565b9150506040830151611bff6040860182611b63565b506060830151611c126060860182611ba4565b508091505092915050565b6000611c298383611bb3565b905092915050565b6000602082019050919050565b6000611c4982611a9e565b611c538185611aa9565b935083602082028501611c6585611aba565b8060005b85811015611ca15784840389528151611c828582611c1d565b9450611c8d83611c31565b925060208a01995050600181019050611c69565b50829750879550505050505092915050565b60006020820190508181036000830152611ccd8184611c3e565b905092915050565b6000604051905090565b600080fd5b600080fd5b611cf281611a6a565b8114611cfd57600080fd5b50565b600081359050611d0f81611ce9565b92915050565b600060208284031215611d2b57611d2a611cdf565b5b6000611d3984828501611d00565b91505092915050565b600082825260208201905092915050565b6000611d5e82611aca565b611d688185611d42565b9350611d78818560208601611ae6565b611d8181611b19565b840191505092915050565b611d9581611b92565b82525050565b60006080820190508181036000830152611db58187611d53565b90508181036020830152611dc98186611d53565b9050611dd86040830185611a74565b611de56060830184611d8c565b95945050505050565b600080fd5b600080fd5b7f4e487b7100000000000000000000000000000000000000000000000000000000600052604160045260246000fd5b611e3082611b19565b810181811067ffffffffffffffff82111715611e4f57611e4e611df8565b5b80604052505050565b6000611e62611cd5565b9050611e6e8282611e27565b919050565b600067ffffffffffffffff821115611e8e57611e8d611df8565b5b611e9782611b19565b9050602081019050919050565b82818337600083830152505050565b6000611ec6611ec184611e73565b611e58565b905082815260208101848484011115611ee257611ee1611df3565b5b611eed848285611ea4565b509392505050565b600082601f830112611f0a57611f09611dee565b5b8135611f1a848260208601611eb3565b91505092915050565b60008060408385031215611f3a57611f39611cdf565b5b600083013567ffffffffffffffff811115611f5857611f57611ce4565b5b611f6485828601611ef5565b925050602083013567ffffffffffffffff811115611f8557611f84611ce4565b5b611f9185828601611ef5565b9150509250929050565b60008115159050919050565b611fb081611f9b565b82525050565b6000602082019050611fcb6000830184611fa7565b92915050565b6000602082019050611fe66000830184611d8c565b92915050565b611ff581611b92565b811461200057600080fd5b50565b60008135905061201281611fec565b92915050565b60006020828403121561202e5761202d611cdf565b5b600061203c84828501612003565b91505092915050565b7f4e487b7100000000000000000000000000000000000000000000000000000000600052603260045260246000fd5b7f4e487b7100000000000000000000000000000000000000000000000000000000600052602260045260246000fd5b600060028204905060018216806120bb57607f821691505b602082108114156120cf576120ce612074565b5b50919050565b7f4e487b7100000000000000000000000000000000000000000000000000000000600052601160045260246000fd5b600061210f82611a6a565b91507fffffffffffffffffffffffffffffffffffffffffffffffffffffffffffffffff821415612142576121416120d5565b5b600182019050919050565b600081905092915050565b600061216382611aca565b61216d818561214d565b935061217d818560208601611ae6565b80840191505092915050565b60006121958284612158565b915081905092915050565b600060208201905081810360008301526121ba8184611d53565b905092915050565b60006121cd82611a6a565b91506121d883611a6a565b9250828210156121eb576121ea6120d5565b5b828203905092915050565b7f546869732066756e6374696f6e206973207265737472696374656420746f207460008201527f686520636f6e74726163742773206f776e657200000000000000000000000000602082015250565b6000612252603383611d42565b915061225d826121f6565b604082019050919050565b6000602082019050818103600083015261228181612245565b9050919050565b7f4e487b7100000000000000000000000000000000000000000000000000000000600052601260045260246000fd5b60006122c282611a6a565b91506122cd83611a6a565b9250826122dd576122dc612288565b5b828206905092915050565b60006122f382611a6a565b91506122fe83611a6a565b9250827fffffffffffffffffffffffffffffffffffffffffffffffffffffffffffffffff03821115612333576123326120d5565b5b828201905092915050565b600061234982611a6a565b915061235483611a6a565b9250817fffffffffffffffffffffffffffffffffffffffffffffffffffffffffffffffff048311821515161561238d5761238c6120d5565b5b82820290509291505056fea2646970667358221220de37a9a6474a37e25361574a0e317f6e8577c99af8e4b40cf0737c860627ec1a64736f6c634300080a0033",
  "immutableReferences": {},
  "source": "pragma solidity 0.8.10;\n// SPDX-License-Identifier: MIT\ncontract Raffle {\n  struct Ticket {\n    string fullname;\n    string email;\n    uint256 block;\n    address wallet;\n  }\n\n // State\n  address public owner;\n\n  Ticket[] public tickets;\n  Ticket[] public drawnTickets;\n\n  mapping (address => Ticket) public users;\n  uint256 public dateChange;\n  uint256 public dateRun;\n\n  event TicketBought(string);\n  event TicketDrawn();\n\n  modifier restricted() {\n    require(\n      msg.sender == owner,\n      \"This function is restricted to the contract's owner\"\n    );\n    _;\n  }\n\n  constructor() {\n    owner = msg.sender;\n    dateChange = block.timestamp;\n  }\n\n  // Sell a ticket. Validate that the email associated to the buyer doesn't have a ticket already\n  function buyTicket(string memory fullname, string memory email) public returns (bool confirmation){\n    bool exists = false;\n    for (uint i = 0; !exists && i < tickets.length; i++) {\n      Ticket memory ticket = tickets[i];\n\n      if (keccak256(abi.encodePacked(email)) == keccak256(abi.encodePacked(ticket.email))) {\n        exists = true;\n      }\n    }\n\n    if (!exists) {\n      Ticket memory newTicket = Ticket(fullname, email, block.number, msg.sender);\n      tickets.push(newTicket);\n      users[msg.sender] = newTicket;\n      emit TicketBought(email);\n      dateChange = block.timestamp;\n      return true;\n    } else {\n        return false;\n    }\n  }\n\n  function currentWinner() public view returns (string memory fullname, string memory email, uint256 block, address wallet) {\n    if (drawnTickets.length > 0) {\n        return (\n            drawnTickets[drawnTickets.length - 1].fullname,\n            drawnTickets[drawnTickets.length - 1].email,\n            drawnTickets[drawnTickets.length - 1].block,\n            drawnTickets[drawnTickets.length - 1].wallet\n        );\n    } else {\n        return ('', '', 0, msg.sender);\n    }\n  }\n\n  function size() public view returns (uint) {\n    return tickets.length;\n  }\n\n  function getTickets() public view returns (Ticket[] memory){\n      Ticket[] memory lTickets = new Ticket[](tickets.length);\n      for (uint i = 0; i < tickets.length; i++) {\n          Ticket storage lTicket = tickets[i];\n          lTickets[i] = lTicket;\n      }\n      return lTickets;\n  }\n\n  function drawnSize() public view returns (uint) {\n    return drawnTickets.length;\n  }\n\n  function drawTicket() public restricted {\n    require(msg.sender == owner);\n    require(dateRun < block.timestamp);\n\n    uint idx = randomTicketIndex();\n    drawnTickets.push(tickets[idx]);\n    removeTicket(idx);\n    emit TicketDrawn();\n    cleanTickets();\n  }\n\n  function removeTicket(uint idx) internal restricted {\n    for (uint i = idx; i + 1 < tickets.length; i++) {\n      tickets[i] = tickets[i+1];\n    }\n    delete tickets[tickets.length - 1];\n  }\n  \n  function cleanTickets() internal restricted {\n    for (uint i = 0;i < tickets.length; i++) {\n      Ticket memory ticket = tickets[i];\n      delete users[ticket.wallet];\n    }\n    delete tickets;\n    dateRun = block.timestamp + 7 days;\n  }\n\n  function randomTicketIndex() internal view returns (uint) {\n    uint idx = random() % tickets.length;\n    return idx;\n  }\n\n  function random() internal view returns (uint) {\n    uint seed = block.number;\n\n    uint a = 1103515245;\n    uint c = 12345;\n    uint m = 2 ** 32;\n\n    return (a * seed + c) % m;\n  }\n}",
  "sourcePath": "/home/machado/Documents/projetos/raffle-app/smartCT/contracts/Raffle.sol",
  "compiler": {
    "name": "solc",
    "version": "0.8.10+commit.fc410830.Emscripten.clang"
  },
  "schemaVersion": "3.4.3",
  "updatedAt": "2021-12-19T13:44:39.320Z",
  "networkType": "ethereum",
  "devdoc": {
    "kind": "dev",
    "methods": {},
    "version": 1
  },
  "userdoc": {
    "kind": "user",
    "methods": {},
    "version": 1
  }
}