{
  "contractName": "Register",
  "abi": [
    {
      "inputs": [],
      "stateMutability": "nonpayable",
      "type": "constructor"
    },
    {
      "inputs": [],
      "name": "dateChange",
      "outputs": [
        {
          "internalType": "uint256",
          "name": "",
          "type": "uint256"
        }
      ],
      "stateMutability": "view",
      "type": "function",
      "constant": true
    },
    {
      "inputs": [],
      "name": "owner",
      "outputs": [
        {
          "internalType": "address",
          "name": "",
          "type": "address"
        }
      ],
      "stateMutability": "view",
      "type": "function",
      "constant": true
    },
    {
      "inputs": [],
      "name": "text",
      "outputs": [
        {
          "internalType": "string",
          "name": "",
          "type": "string"
        }
      ],
      "stateMutability": "view",
      "type": "function",
      "constant": true
    },
    {
      "inputs": [
        {
          "internalType": "string",
          "name": "_text",
          "type": "string"
        }
      ],
      "name": "setText",
      "outputs": [],
      "stateMutability": "nonpayable",
      "type": "function"
    }
  ],
  "bytecode": "0x6080604052336000806101000a81548173ffffffffffffffffffffffffffffffffffffffff021916908373ffffffffffffffffffffffffffffffffffffffff16021790555034801561005057600080fd5b5042600281905550604051806020016040528060008152506001908051906020019061007d929190610083565b50610187565b82805461008f90610155565b90600052602060002090601f0160209004810192826100b157600085556100f8565b82601f106100ca57805160ff19168380011785556100f8565b828001600101855582156100f8579182015b828111156100f75782518255916020019190600101906100dc565b5b5090506101059190610109565b5090565b5b8082111561012257600081600090555060010161010a565b5090565b7f4e487b7100000000000000000000000000000000000000000000000000000000600052602260045260246000fd5b6000600282049050600182168061016d57607f821691505b6020821081141561018157610180610126565b5b50919050565b6106d7806101966000396000f3fe608060405234801561001057600080fd5b506004361061004c5760003560e01c80631f1bd69214610051578063478a6d101461006f5780635d3a1f9d1461008d5780638da5cb5b146100a9575b600080fd5b6100596100c7565b604051610066919061036a565b60405180910390f35b610077610155565b60405161008491906103a5565b60405180910390f35b6100a760048036038101906100a29190610509565b61015b565b005b6100b161020a565b6040516100be9190610593565b60405180910390f35b600180546100d4906105dd565b80601f0160208091040260200160405190810160405280929190818152602001828054610100906105dd565b801561014d5780601f106101225761010080835404028352916020019161014d565b820191906000526020600020905b81548152906001019060200180831161013057829003601f168201915b505050505081565b60025481565b60008054906101000a900473ffffffffffffffffffffffffffffffffffffffff1673ffffffffffffffffffffffffffffffffffffffff163373ffffffffffffffffffffffffffffffffffffffff16146101e9576040517f08c379a00000000000000000000000000000000000000000000000000000000081526004016101e090610681565b60405180910390fd5b80600190805190602001906101ff92919061022e565b504260028190555050565b60008054906101000a900473ffffffffffffffffffffffffffffffffffffffff1681565b82805461023a906105dd565b90600052602060002090601f01602090048101928261025c57600085556102a3565b82601f1061027557805160ff19168380011785556102a3565b828001600101855582156102a3579182015b828111156102a2578251825591602001919060010190610287565b5b5090506102b091906102b4565b5090565b5b808211156102cd5760008160009055506001016102b5565b5090565b600081519050919050565b600082825260208201905092915050565b60005b8381101561030b5780820151818401526020810190506102f0565b8381111561031a576000848401525b50505050565b6000601f19601f8301169050919050565b600061033c826102d1565b61034681856102dc565b93506103568185602086016102ed565b61035f81610320565b840191505092915050565b600060208201905081810360008301526103848184610331565b905092915050565b6000819050919050565b61039f8161038c565b82525050565b60006020820190506103ba6000830184610396565b92915050565b6000604051905090565b600080fd5b600080fd5b600080fd5b600080fd5b7f4e487b7100000000000000000000000000000000000000000000000000000000600052604160045260246000fd5b61041682610320565b810181811067ffffffffffffffff82111715610435576104346103de565b5b80604052505050565b60006104486103c0565b9050610454828261040d565b919050565b600067ffffffffffffffff821115610474576104736103de565b5b61047d82610320565b9050602081019050919050565b82818337600083830152505050565b60006104ac6104a784610459565b61043e565b9050828152602081018484840111156104c8576104c76103d9565b5b6104d384828561048a565b509392505050565b600082601f8301126104f0576104ef6103d4565b5b8135610500848260208601610499565b91505092915050565b60006020828403121561051f5761051e6103ca565b5b600082013567ffffffffffffffff81111561053d5761053c6103cf565b5b610549848285016104db565b91505092915050565b600073ffffffffffffffffffffffffffffffffffffffff82169050919050565b600061057d82610552565b9050919050565b61058d81610572565b82525050565b60006020820190506105a86000830184610584565b92915050565b7f4e487b7100000000000000000000000000000000000000000000000000000000600052602260045260246000fd5b600060028204905060018216806105f557607f821691505b60208210811415610609576106086105ae565b5b50919050565b7f546869732066756e6374696f6e206973207265737472696374656420746f207460008201527f686520636f6e74726163742773206f776e657200000000000000000000000000602082015250565b600061066b6033836102dc565b91506106768261060f565b604082019050919050565b6000602082019050818103600083015261069a8161065e565b905091905056fea2646970667358221220a7abca4d28c515b6922a5006a3be801694e5170386a4469bd338ab8c840add6f64736f6c634300080a0033",
  "immutableReferences": {},
  "source": "// SPDX-License-Identifier: MIT\npragma solidity 0.8.10;\n\ncontract Register {\n  address public owner = msg.sender;\n  string public text;\n  uint256 public dateChange;\n\n  modifier restricted() {\n    require(\n      msg.sender == owner,\n      \"This function is restricted to the contract's owner\"\n    );\n    _;\n  }\n  constructor() {\n    dateChange = block.timestamp;\n    text = \"\";\n  }\n\n  function setText(string memory _text) public restricted {\n    text = _text;\n    dateChange = block.timestamp;\n  }\n}\n",
  "sourcePath": "/home/machado/Documents/projetos/raffle-app/smartCT/contracts/Register.sol",
  "compiler": {
    "name": "solc",
    "version": "0.8.10+commit.fc410830.Emscripten.clang"
  },
  "schemaVersion": "3.4.3",
  "updatedAt": "2021-12-03T21:09:23.807Z",
  "networkType": "ethereum",
  "devdoc": {
    "kind": "dev",
    "methods": {},
    "version": 1
  },
  "userdoc": {
    "kind": "user",
    "methods": {},
    "version": 1
  }
}