{
  "contractName": "Register",
  "abi": [
    {
      "inputs": [],
      "stateMutability": "nonpayable",
      "type": "constructor"
    },
    {
      "inputs": [],
      "name": "dateChange",
      "outputs": [
        {
          "internalType": "uint256",
          "name": "",
          "type": "uint256"
        }
      ],
      "stateMutability": "view",
      "type": "function",
      "constant": true
    },
    {
      "inputs": [],
      "name": "owner",
      "outputs": [
        {
          "internalType": "address",
          "name": "",
          "type": "address"
        }
      ],
      "stateMutability": "view",
      "type": "function",
      "constant": true
    },
    {
      "inputs": [],
      "name": "text",
      "outputs": [
        {
          "internalType": "string",
          "name": "",
          "type": "string"
        }
      ],
      "stateMutability": "view",
      "type": "function",
      "constant": true
    },
    {
      "inputs": [
        {
          "internalType": "string",
          "name": "_text",
          "type": "string"
        }
      ],
      "name": "setText",
      "outputs": [],
      "stateMutability": "nonpayable",
      "type": "function"
    }
  ],
  "bytecode": "0x6080604052336000806101000a81548173ffffffffffffffffffffffffffffffffffffffff021916908373ffffffffffffffffffffffffffffffffffffffff16021790555034801561005057600080fd5b5042600281905550604051806020016040528060008152506001908051906020019061007d929190610083565b50610187565b82805461008f90610155565b90600052602060002090601f0160209004810192826100b157600085556100f8565b82601f106100ca57805160ff19168380011785556100f8565b828001600101855582156100f8579182015b828111156100f75782518255916020019190600101906100dc565b5b5090506101059190610109565b5090565b5b8082111561012257600081600090555060010161010a565b5090565b7f4e487b7100000000000000000000000000000000000000000000000000000000600052602260045260246000fd5b6000600282049050600182168061016d57607f821691505b6020821081141561018157610180610126565b5b50919050565b6105b7806101966000396000f3fe608060405234801561001057600080fd5b506004361061004c5760003560e01c80631f1bd69214610051578063478a6d101461006f5780635d3a1f9d1461008d5780638da5cb5b146100a9575b600080fd5b6100596100c7565b60405161006691906102dc565b60405180910390f35b610077610155565b6040516100849190610317565b60405180910390f35b6100a760048036038101906100a2919061047b565b61015b565b005b6100b161017c565b6040516100be9190610505565b60405180910390f35b600180546100d49061054f565b80601f01602080910402602001604051908101604052809291908181526020018280546101009061054f565b801561014d5780601f106101225761010080835404028352916020019161014d565b820191906000526020600020905b81548152906001019060200180831161013057829003601f168201915b505050505081565b60025481565b80600190805190602001906101719291906101a0565b504260028190555050565b60008054906101000a900473ffffffffffffffffffffffffffffffffffffffff1681565b8280546101ac9061054f565b90600052602060002090601f0160209004810192826101ce5760008555610215565b82601f106101e757805160ff1916838001178555610215565b82800160010185558215610215579182015b828111156102145782518255916020019190600101906101f9565b5b5090506102229190610226565b5090565b5b8082111561023f576000816000905550600101610227565b5090565b600081519050919050565b600082825260208201905092915050565b60005b8381101561027d578082015181840152602081019050610262565b8381111561028c576000848401525b50505050565b6000601f19601f8301169050919050565b60006102ae82610243565b6102b8818561024e565b93506102c881856020860161025f565b6102d181610292565b840191505092915050565b600060208201905081810360008301526102f681846102a3565b905092915050565b6000819050919050565b610311816102fe565b82525050565b600060208201905061032c6000830184610308565b92915050565b6000604051905090565b600080fd5b600080fd5b600080fd5b600080fd5b7f4e487b7100000000000000000000000000000000000000000000000000000000600052604160045260246000fd5b61038882610292565b810181811067ffffffffffffffff821117156103a7576103a6610350565b5b80604052505050565b60006103ba610332565b90506103c6828261037f565b919050565b600067ffffffffffffffff8211156103e6576103e5610350565b5b6103ef82610292565b9050602081019050919050565b82818337600083830152505050565b600061041e610419846103cb565b6103b0565b90508281526020810184848401111561043a5761043961034b565b5b6104458482856103fc565b509392505050565b600082601f83011261046257610461610346565b5b813561047284826020860161040b565b91505092915050565b6000602082840312156104915761049061033c565b5b600082013567ffffffffffffffff8111156104af576104ae610341565b5b6104bb8482850161044d565b91505092915050565b600073ffffffffffffffffffffffffffffffffffffffff82169050919050565b60006104ef826104c4565b9050919050565b6104ff816104e4565b82525050565b600060208201905061051a60008301846104f6565b92915050565b7f4e487b7100000000000000000000000000000000000000000000000000000000600052602260045260246000fd5b6000600282049050600182168061056757607f821691505b6020821081141561057b5761057a610520565b5b5091905056fea2646970667358221220391b9cb7165f840657998f4aa6bd558cc174b620b3418bbdd8bec14797889c6e64736f6c634300080a0033",
  "immutableReferences": {},
  "source": "// SPDX-License-Identifier: MIT\npragma solidity 0.8.10;\n\ncontract Register {\n  address public owner = msg.sender;\n  string public text;\n  uint256 public dateChange;\n\n  constructor() {\n    dateChange = block.timestamp;\n    text = \"\";\n  }\n\n  function setText(string memory _text) public {\n    text = _text;\n    dateChange = block.timestamp;\n  }\n}\n",
  "sourcePath": "/home/machado/Documents/projetos/raffle-app/smartCT/contracts/Register.sol",
  "compiler": {
    "name": "solc",
    "version": "0.8.10+commit.fc410830.Emscripten.clang"
  },
  "schemaVersion": "3.4.3",
  "updatedAt": "2021-12-12T14:36:42.728Z",
  "networkType": "ethereum",
  "devdoc": {
    "kind": "dev",
    "methods": {},
    "version": 1
  },
  "userdoc": {
    "kind": "user",
    "methods": {},
    "version": 1
  }
}